{
  "contractName": "GrantChain",
  "abi": [
    {
      "anonymous": false,
      "inputs": [
        {
          "indexed": true,
          "internalType": "address",
          "name": "owner",
          "type": "address"
        },
        {
          "indexed": true,
          "internalType": "address",
          "name": "approved",
          "type": "address"
        },
        {
          "indexed": true,
          "internalType": "uint256",
          "name": "tokenId",
          "type": "uint256"
        }
      ],
      "name": "Approval",
      "type": "event"
    },
    {
      "anonymous": false,
      "inputs": [
        {
          "indexed": true,
          "internalType": "address",
          "name": "owner",
          "type": "address"
        },
        {
          "indexed": true,
          "internalType": "address",
          "name": "operator",
          "type": "address"
        },
        {
          "indexed": false,
          "internalType": "bool",
          "name": "approved",
          "type": "bool"
        }
      ],
      "name": "ApprovalForAll",
      "type": "event"
    },
    {
      "anonymous": false,
      "inputs": [
        {
          "indexed": true,
          "internalType": "string",
          "name": "EventAction",
          "type": "string"
        },
        {
          "indexed": true,
          "internalType": "string",
          "name": "Data",
          "type": "string"
        }
      ],
      "name": "SystemLog",
      "type": "event"
    },
    {
      "anonymous": false,
      "inputs": [
        {
          "indexed": true,
          "internalType": "address",
          "name": "from",
          "type": "address"
        },
        {
          "indexed": true,
          "internalType": "address",
          "name": "to",
          "type": "address"
        },
        {
          "indexed": true,
          "internalType": "uint256",
          "name": "tokenId",
          "type": "uint256"
        }
      ],
      "name": "Transfer",
      "type": "event"
    },
    {
      "inputs": [
        {
          "internalType": "address",
          "name": "to",
          "type": "address"
        },
        {
          "internalType": "uint256",
          "name": "tokenId",
          "type": "uint256"
        }
      ],
      "name": "approve",
      "outputs": [],
      "stateMutability": "nonpayable",
      "type": "function"
    },
    {
      "inputs": [
        {
          "internalType": "address",
          "name": "owner",
          "type": "address"
        }
      ],
      "name": "balanceOf",
      "outputs": [
        {
          "internalType": "uint256",
          "name": "",
          "type": "uint256"
        }
      ],
      "stateMutability": "view",
      "type": "function",
      "constant": true
    },
    {
      "inputs": [],
      "name": "campaignCount",
      "outputs": [
        {
          "internalType": "uint256",
          "name": "",
          "type": "uint256"
        }
      ],
      "stateMutability": "view",
      "type": "function",
      "constant": true
    },
    {
      "inputs": [],
      "name": "donationCount",
      "outputs": [
        {
          "internalType": "uint256",
          "name": "",
          "type": "uint256"
        }
      ],
      "stateMutability": "view",
      "type": "function",
      "constant": true
    },
    {
      "inputs": [
        {
          "internalType": "uint256",
          "name": "",
          "type": "uint256"
        }
      ],
      "name": "donationDetails",
      "outputs": [
        {
          "internalType": "string",
          "name": "emailId",
          "type": "string"
        },
        {
          "internalType": "string",
          "name": "firstname",
          "type": "string"
        },
        {
          "internalType": "string",
          "name": "lastname",
          "type": "string"
        },
        {
          "internalType": "string",
          "name": "amount",
          "type": "string"
        },
        {
          "internalType": "bool",
          "name": "alloted",
          "type": "bool"
        }
      ],
      "stateMutability": "view",
      "type": "function",
      "constant": true
    },
    {
      "inputs": [
        {
          "internalType": "uint256",
          "name": "tokenId",
          "type": "uint256"
        }
      ],
      "name": "getApproved",
      "outputs": [
        {
          "internalType": "address",
          "name": "",
          "type": "address"
        }
      ],
      "stateMutability": "view",
      "type": "function",
      "constant": true
    },
    {
      "inputs": [
        {
          "internalType": "address",
          "name": "owner",
          "type": "address"
        },
        {
          "internalType": "address",
          "name": "operator",
          "type": "address"
        }
      ],
      "name": "isApprovedForAll",
      "outputs": [
        {
          "internalType": "bool",
          "name": "",
          "type": "bool"
        }
      ],
      "stateMutability": "view",
      "type": "function",
      "constant": true
    },
    {
      "inputs": [],
      "name": "name",
      "outputs": [
        {
          "internalType": "string",
          "name": "",
          "type": "string"
        }
      ],
      "stateMutability": "view",
      "type": "function",
      "constant": true
    },
    {
      "inputs": [
        {
          "internalType": "uint256",
          "name": "tokenId",
          "type": "uint256"
        }
      ],
      "name": "ownerOf",
      "outputs": [
        {
          "internalType": "address",
          "name": "",
          "type": "address"
        }
      ],
      "stateMutability": "view",
      "type": "function",
      "constant": true
    },
    {
      "inputs": [],
      "name": "projectCount",
      "outputs": [
        {
          "internalType": "uint256",
          "name": "",
          "type": "uint256"
        }
      ],
      "stateMutability": "view",
      "type": "function",
      "constant": true
    },
    {
      "inputs": [
        {
          "internalType": "uint256",
          "name": "",
          "type": "uint256"
        },
        {
          "internalType": "uint256",
          "name": "",
          "type": "uint256"
        }
      ],
      "name": "projectbuildils",
      "outputs": [
        {
          "internalType": "uint256",
          "name": "",
          "type": "uint256"
        }
      ],
      "stateMutability": "view",
      "type": "function",
      "constant": true
    },
    {
      "inputs": [
        {
          "internalType": "address",
          "name": "from",
          "type": "address"
        },
        {
          "internalType": "address",
          "name": "to",
          "type": "address"
        },
        {
          "internalType": "uint256",
          "name": "tokenId",
          "type": "uint256"
        }
      ],
      "name": "safeTransferFrom",
      "outputs": [],
      "stateMutability": "nonpayable",
      "type": "function"
    },
    {
      "inputs": [
        {
          "internalType": "address",
          "name": "from",
          "type": "address"
        },
        {
          "internalType": "address",
          "name": "to",
          "type": "address"
        },
        {
          "internalType": "uint256",
          "name": "tokenId",
          "type": "uint256"
        },
        {
          "internalType": "bytes",
          "name": "data",
          "type": "bytes"
        }
      ],
      "name": "safeTransferFrom",
      "outputs": [],
      "stateMutability": "nonpayable",
      "type": "function"
    },
    {
      "inputs": [
        {
          "internalType": "address",
          "name": "operator",
          "type": "address"
        },
        {
          "internalType": "bool",
          "name": "approved",
          "type": "bool"
        }
      ],
      "name": "setApprovalForAll",
      "outputs": [],
      "stateMutability": "nonpayable",
      "type": "function"
    },
    {
      "inputs": [
        {
          "internalType": "bytes4",
          "name": "interfaceId",
          "type": "bytes4"
        }
      ],
      "name": "supportsInterface",
      "outputs": [
        {
          "internalType": "bool",
          "name": "",
          "type": "bool"
        }
      ],
      "stateMutability": "view",
      "type": "function",
      "constant": true
    },
    {
      "inputs": [],
      "name": "symbol",
      "outputs": [
        {
          "internalType": "string",
          "name": "",
          "type": "string"
        }
      ],
      "stateMutability": "view",
      "type": "function",
      "constant": true
    },
    {
      "inputs": [
        {
          "internalType": "uint256",
          "name": "tokenId",
          "type": "uint256"
        }
      ],
      "name": "tokenURI",
      "outputs": [
        {
          "internalType": "string",
          "name": "",
          "type": "string"
        }
      ],
      "stateMutability": "view",
      "type": "function",
      "constant": true
    },
    {
      "inputs": [
        {
          "internalType": "address",
          "name": "from",
          "type": "address"
        },
        {
          "internalType": "address",
          "name": "to",
          "type": "address"
        },
        {
          "internalType": "uint256",
          "name": "tokenId",
          "type": "uint256"
        }
      ],
      "name": "transferFrom",
      "outputs": [],
      "stateMutability": "nonpayable",
      "type": "function"
    },
    {
      "inputs": [
        {
          "internalType": "uint256",
          "name": "_projectCount",
          "type": "uint256"
        },
        {
          "internalType": "uint256[]",
          "name": "bundillist",
          "type": "uint256[]"
        }
      ],
      "name": "createBundil",
      "outputs": [],
      "stateMutability": "nonpayable",
      "type": "function"
    },
    {
      "inputs": [],
      "name": "plusCampaignCount",
      "outputs": [],
      "stateMutability": "nonpayable",
      "type": "function"
    },
    {
      "inputs": [
        {
          "internalType": "string",
          "name": "_emailId",
          "type": "string"
        },
        {
          "internalType": "string",
          "name": "_firstname",
          "type": "string"
        },
        {
          "internalType": "string",
          "name": "_lastname",
          "type": "string"
        },
        {
          "internalType": "string",
          "name": "_amount",
          "type": "string"
        },
        {
          "internalType": "bool",
          "name": "_alloted",
          "type": "bool"
        }
      ],
      "name": "newDonation",
      "outputs": [],
      "stateMutability": "nonpayable",
      "type": "function"
    }
  ],
  "bytecode": "0x60806040523480156200001157600080fd5b506040518060400160405280600a81526020017f4772616e74436861696e000000000000000000000000000000000000000000008152506040518060400160405280600281526020017f4743000000000000000000000000000000000000000000000000000000000000815250816000908051906020019062000096929190620000b8565b508060019080519060200190620000af929190620000b8565b505050620001cd565b828054620000c69062000168565b90600052602060002090601f016020900481019282620000ea576000855562000136565b82601f106200010557805160ff191683800117855562000136565b8280016001018555821562000136579182015b828111156200013557825182559160200191906001019062000118565b5b50905062000145919062000149565b5090565b5b80821115620001645760008160009055506001016200014a565b5090565b600060028204905060018216806200018157607f821691505b602082108114156200019857620001976200019e565b5b50919050565b7f4e487b7100000000000000000000000000000000000000000000000000000000600052602260045260246000fd5b612e8280620001dd6000396000f3fe608060405234801561001057600080fd5b50600436106101375760003560e01c80635ed150ad116100b857806395d89b411161007c57806395d89b411461033e578063a22cb4651461035c578063b88d4fde14610378578063c87b56dd14610394578063dc6ed7a7146103c4578063e985e9c5146103f457610137565b80635ed150ad1461029a5780636352211e146102a457806370a08231146102d45780637274e30d1461030457806377b694c21461032257610137565b806323b872dd116100ff57806323b872dd1461020a5780632abfab4d146102265780633483fbc11461024457806336fbad261461026057806342842e0e1461027e57610137565b806301ffc9a71461013c57806306fdde031461016c578063081812fc1461018a578063095ea7b3146101ba57806323780340146101d6575b600080fd5b61015660048036038101906101519190611fb5565b610424565b60405161016391906124c2565b60405180910390f35b610174610506565b60405161018191906124dd565b60405180910390f35b6101a4600480360381019061019f91906120de565b610598565b6040516101b1919061245b565b60405180910390f35b6101d460048036038101906101cf9190611f79565b6105de565b005b6101f060048036038101906101eb91906120de565b6106f6565b6040516102019594939291906124ff565b60405180910390f35b610224600480360381019061021f9190611e73565b610959565b005b61022e6109b9565b60405161023b91906126ce565b60405180910390f35b61025e60048036038101906102599190612007565b6109bf565b005b610268610b17565b60405161027591906126ce565b60405180910390f35b61029860048036038101906102939190611e73565b610b1d565b005b6102a2610b3d565b005b6102be60048036038101906102b991906120de565b610b59565b6040516102cb919061245b565b60405180910390f35b6102ee60048036038101906102e99190611e0e565b610c0b565b6040516102fb91906126ce565b60405180910390f35b61030c610cc3565b60405161031991906126ce565b60405180910390f35b61033c60048036038101906103379190612107565b610cc9565b005b610346610d0f565b60405161035391906124dd565b60405180910390f35b61037660048036038101906103719190611f3d565b610da1565b005b610392600480360381019061038d9190611ec2565b610db7565b005b6103ae60048036038101906103a991906120de565b610e19565b6040516103bb91906124dd565b60405180910390f35b6103de60048036038101906103d9919061215b565b610e81565b6040516103eb91906126ce565b60405180910390f35b61040e60048036038101906104099190611e37565b610eb2565b60405161041b91906124c2565b60405180910390f35b60007f80ac58cd000000000000000000000000000000000000000000000000000000007bffffffffffffffffffffffffffffffffffffffffffffffffffffffff1916827bffffffffffffffffffffffffffffffffffffffffffffffffffffffff191614806104ef57507f5b5e139f000000000000000000000000000000000000000000000000000000007bffffffffffffffffffffffffffffffffffffffffffffffffffffffff1916827bffffffffffffffffffffffffffffffffffffffffffffffffffffffff1916145b806104ff57506104fe82610f46565b5b9050919050565b60606000805461051590612950565b80601f016020809104026020016040519081016040528092919081815260200182805461054190612950565b801561058e5780601f106105635761010080835404028352916020019161058e565b820191906000526020600020905b81548152906001019060200180831161057157829003601f168201915b5050505050905090565b60006105a382610fb0565b6004600083815260200190815260200160002060009054906101000a900473ffffffffffffffffffffffffffffffffffffffff169050919050565b60006105e982610b59565b90508073ffffffffffffffffffffffffffffffffffffffff168373ffffffffffffffffffffffffffffffffffffffff16141561065a576040517f08c379a00000000000000000000000000000000000000000000000000000000081526004016106519061268e565b60405180910390fd5b8073ffffffffffffffffffffffffffffffffffffffff16610679610ffb565b73ffffffffffffffffffffffffffffffffffffffff1614806106a857506106a7816106a2610ffb565b610eb2565b5b6106e7576040517f08c379a00000000000000000000000000000000000000000000000000000000081526004016106de9061262e565b60405180910390fd5b6106f18383611003565b505050565b600760205280600052604060002060009150905080600001805461071990612950565b80601f016020809104026020016040519081016040528092919081815260200182805461074590612950565b80156107925780601f1061076757610100808354040283529160200191610792565b820191906000526020600020905b81548152906001019060200180831161077557829003601f168201915b5050505050908060010180546107a790612950565b80601f01602080910402602001604051908101604052809291908181526020018280546107d390612950565b80156108205780601f106107f557610100808354040283529160200191610820565b820191906000526020600020905b81548152906001019060200180831161080357829003601f168201915b50505050509080600201805461083590612950565b80601f016020809104026020016040519081016040528092919081815260200182805461086190612950565b80156108ae5780601f10610883576101008083540402835291602001916108ae565b820191906000526020600020905b81548152906001019060200180831161089157829003601f168201915b5050505050908060030180546108c390612950565b80601f01602080910402602001604051908101604052809291908181526020018280546108ef90612950565b801561093c5780601f106109115761010080835404028352916020019161093c565b820191906000526020600020905b81548152906001019060200180831161091f57829003601f168201915b5050505050908060040160009054906101000a900460ff16905085565b61096a610964610ffb565b826110bc565b6109a9576040517f08c379a00000000000000000000000000000000000000000000000000000000081526004016109a0906126ae565b60405180910390fd5b6109b4838383611151565b505050565b60065481565b6040518060a001604052808681526020018581526020018481526020018381526020018215158152506007600060065481526020019081526020016000206000820151816000019080519060200190610a19929190611b4f565b506020820151816001019080519060200190610a36929190611b4f565b506040820151816002019080519060200190610a53929190611b4f565b506060820151816003019080519060200190610a70929190611b4f565b5060808201518160040160006101000a81548160ff021916908315150217905550905050610aa0336006546113b8565b84604051610aae919061240b565b6040518091039020604051610ac290612446565b60405180910390207f01a091983a6d3afd30e9acedef086a8b23893ff0112044a1cfe7d3be7c572d1860405160405180910390a3600160066000828254610b0991906127df565b925050819055505050505050565b60095481565b610b3883838360405180602001604052806000815250610db7565b505050565b600160086000828254610b5091906127df565b92505081905550565b6000806002600084815260200190815260200160002060009054906101000a900473ffffffffffffffffffffffffffffffffffffffff169050600073ffffffffffffffffffffffffffffffffffffffff168173ffffffffffffffffffffffffffffffffffffffff161415610c02576040517f08c379a0000000000000000000000000000000000000000000000000000000008152600401610bf99061266e565b60405180910390fd5b80915050919050565b60008073ffffffffffffffffffffffffffffffffffffffff168273ffffffffffffffffffffffffffffffffffffffff161415610c7c576040517f08c379a0000000000000000000000000000000000000000000000000000000008152600401610c739061260e565b60405180910390fd5b600360008373ffffffffffffffffffffffffffffffffffffffff1673ffffffffffffffffffffffffffffffffffffffff168152602001908152602001600020549050919050565b60085481565b80600a60008481526020019081526020016000209080519060200190610cf0929190611bd5565b50600160096000828254610d0491906127df565b925050819055505050565b606060018054610d1e90612950565b80601f0160208091040260200160405190810160405280929190818152602001828054610d4a90612950565b8015610d975780601f10610d6c57610100808354040283529160200191610d97565b820191906000526020600020905b815481529060010190602001808311610d7a57829003601f168201915b5050505050905090565b610db3610dac610ffb565b8383611592565b5050565b610dc8610dc2610ffb565b836110bc565b610e07576040517f08c379a0000000000000000000000000000000000000000000000000000000008152600401610dfe906126ae565b60405180910390fd5b610e13848484846116ff565b50505050565b6060610e2482610fb0565b6000610e2e61175b565b90506000815111610e4e5760405180602001604052806000815250610e79565b80610e5884611772565b604051602001610e69929190612422565b6040516020818303038152906040525b915050919050565b600a6020528160005260406000208181548110610e9d57600080fd5b90600052602060002001600091509150505481565b6000600560008473ffffffffffffffffffffffffffffffffffffffff1673ffffffffffffffffffffffffffffffffffffffff16815260200190815260200160002060008373ffffffffffffffffffffffffffffffffffffffff1673ffffffffffffffffffffffffffffffffffffffff16815260200190815260200160002060009054906101000a900460ff16905092915050565b60007f01ffc9a7000000000000000000000000000000000000000000000000000000007bffffffffffffffffffffffffffffffffffffffffffffffffffffffff1916827bffffffffffffffffffffffffffffffffffffffffffffffffffffffff1916149050919050565b610fb98161191f565b610ff8576040517f08c379a0000000000000000000000000000000000000000000000000000000008152600401610fef9061266e565b60405180910390fd5b50565b600033905090565b816004600083815260200190815260200160002060006101000a81548173ffffffffffffffffffffffffffffffffffffffff021916908373ffffffffffffffffffffffffffffffffffffffff160217905550808273ffffffffffffffffffffffffffffffffffffffff1661107683610b59565b73ffffffffffffffffffffffffffffffffffffffff167f8c5be1e5ebec7d5bd14f71427d1e84f3dd0314c0f7b2291e5b200ac8c7c3b92560405160405180910390a45050565b6000806110c883610b59565b90508073ffffffffffffffffffffffffffffffffffffffff168473ffffffffffffffffffffffffffffffffffffffff16148061110a57506111098185610eb2565b5b8061114857508373ffffffffffffffffffffffffffffffffffffffff1661113084610598565b73ffffffffffffffffffffffffffffffffffffffff16145b91505092915050565b8273ffffffffffffffffffffffffffffffffffffffff1661117182610b59565b73ffffffffffffffffffffffffffffffffffffffff16146111c7576040517f08c379a00000000000000000000000000000000000000000000000000000000081526004016111be9061258e565b60405180910390fd5b600073ffffffffffffffffffffffffffffffffffffffff168273ffffffffffffffffffffffffffffffffffffffff161415611237576040517f08c379a000000000000000000000000000000000000000000000000000000000815260040161122e906125ce565b60405180910390fd5b61124283838361198b565b61124d600082611003565b6001600360008573ffffffffffffffffffffffffffffffffffffffff1673ffffffffffffffffffffffffffffffffffffffff168152602001908152602001600020600082825461129d9190612866565b925050819055506001600360008473ffffffffffffffffffffffffffffffffffffffff1673ffffffffffffffffffffffffffffffffffffffff16815260200190815260200160002060008282546112f491906127df565b92505081905550816002600083815260200190815260200160002060006101000a81548173ffffffffffffffffffffffffffffffffffffffff021916908373ffffffffffffffffffffffffffffffffffffffff160217905550808273ffffffffffffffffffffffffffffffffffffffff168473ffffffffffffffffffffffffffffffffffffffff167fddf252ad1be2c89b69c2b068fc378daa952ba7f163c4a11628f55a4df523b3ef60405160405180910390a46113b3838383611990565b505050565b600073ffffffffffffffffffffffffffffffffffffffff168273ffffffffffffffffffffffffffffffffffffffff161415611428576040517f08c379a000000000000000000000000000000000000000000000000000000000815260040161141f9061264e565b60405180910390fd5b6114318161191f565b15611471576040517f08c379a0000000000000000000000000000000000000000000000000000000008152600401611468906125ae565b60405180910390fd5b61147d6000838361198b565b6001600360008473ffffffffffffffffffffffffffffffffffffffff1673ffffffffffffffffffffffffffffffffffffffff16815260200190815260200160002060008282546114cd91906127df565b92505081905550816002600083815260200190815260200160002060006101000a81548173ffffffffffffffffffffffffffffffffffffffff021916908373ffffffffffffffffffffffffffffffffffffffff160217905550808273ffffffffffffffffffffffffffffffffffffffff16600073ffffffffffffffffffffffffffffffffffffffff167fddf252ad1be2c89b69c2b068fc378daa952ba7f163c4a11628f55a4df523b3ef60405160405180910390a461158e60008383611990565b5050565b8173ffffffffffffffffffffffffffffffffffffffff168373ffffffffffffffffffffffffffffffffffffffff161415611601576040517f08c379a00000000000000000000000000000000000000000000000000000000081526004016115f8906125ee565b60405180910390fd5b80600560008573ffffffffffffffffffffffffffffffffffffffff1673ffffffffffffffffffffffffffffffffffffffff16815260200190815260200160002060008473ffffffffffffffffffffffffffffffffffffffff1673ffffffffffffffffffffffffffffffffffffffff16815260200190815260200160002060006101000a81548160ff0219169083151502179055508173ffffffffffffffffffffffffffffffffffffffff168373ffffffffffffffffffffffffffffffffffffffff167f17307eab39ab6107e8899845ad3d59bd9653f200f220920489ca2b5937696c31836040516116f291906124c2565b60405180910390a3505050565b61170a848484611151565b61171684848484611995565b611755576040517f08c379a000000000000000000000000000000000000000000000000000000000815260040161174c9061256e565b60405180910390fd5b50505050565b606060405180602001604052806000815250905090565b606060008214156117ba576040518060400160405280600181526020017f3000000000000000000000000000000000000000000000000000000000000000815250905061191a565b600082905060005b600082146117ec5780806117d5906129b3565b915050600a826117e59190612835565b91506117c2565b60008167ffffffffffffffff81111561182e577f4e487b7100000000000000000000000000000000000000000000000000000000600052604160045260246000fd5b6040519080825280601f01601f1916602001820160405280156118605781602001600182028036833780820191505090505b5090505b60008514611913576001826118799190612866565b9150600a8561188891906129fc565b603061189491906127df565b60f81b8183815181106118d0577f4e487b7100000000000000000000000000000000000000000000000000000000600052603260045260246000fd5b60200101907effffffffffffffffffffffffffffffffffffffffffffffffffffffffffffff1916908160001a905350600a8561190c9190612835565b9450611864565b8093505050505b919050565b60008073ffffffffffffffffffffffffffffffffffffffff166002600084815260200190815260200160002060009054906101000a900473ffffffffffffffffffffffffffffffffffffffff1673ffffffffffffffffffffffffffffffffffffffff1614159050919050565b505050565b505050565b60006119b68473ffffffffffffffffffffffffffffffffffffffff16611b2c565b15611b1f578373ffffffffffffffffffffffffffffffffffffffff1663150b7a026119df610ffb565b8786866040518563ffffffff1660e01b8152600401611a019493929190612476565b602060405180830381600087803b158015611a1b57600080fd5b505af1925050508015611a4c57506040513d601f19601f82011682018060405250810190611a499190611fde565b60015b611acf573d8060008114611a7c576040519150601f19603f3d011682016040523d82523d6000602084013e611a81565b606091505b50600081511415611ac7576040517f08c379a0000000000000000000000000000000000000000000000000000000008152600401611abe9061256e565b60405180910390fd5b805181602001fd5b63150b7a0260e01b7bffffffffffffffffffffffffffffffffffffffffffffffffffffffff1916817bffffffffffffffffffffffffffffffffffffffffffffffffffffffff191614915050611b24565b600190505b949350505050565b6000808273ffffffffffffffffffffffffffffffffffffffff163b119050919050565b828054611b5b90612950565b90600052602060002090601f016020900481019282611b7d5760008555611bc4565b82601f10611b9657805160ff1916838001178555611bc4565b82800160010185558215611bc4579182015b82811115611bc3578251825591602001919060010190611ba8565b5b509050611bd19190611c22565b5090565b828054828255906000526020600020908101928215611c11579160200282015b82811115611c10578251825591602001919060010190611bf5565b5b509050611c1e9190611c22565b5090565b5b80821115611c3b576000816000905550600101611c23565b5090565b6000611c52611c4d8461270e565b6126e9565b90508083825260208201905082856020860282011115611c7157600080fd5b60005b85811015611ca15781611c878882611df9565b845260208401935060208301925050600181019050611c74565b5050509392505050565b6000611cbe611cb98461273a565b6126e9565b905082815260208101848484011115611cd657600080fd5b611ce184828561290e565b509392505050565b6000611cfc611cf78461276b565b6126e9565b905082815260208101848484011115611d1457600080fd5b611d1f84828561290e565b509392505050565b600081359050611d3681612df0565b92915050565b600082601f830112611d4d57600080fd5b8135611d5d848260208601611c3f565b91505092915050565b600081359050611d7581612e07565b92915050565b600081359050611d8a81612e1e565b92915050565b600081519050611d9f81612e1e565b92915050565b600082601f830112611db657600080fd5b8135611dc6848260208601611cab565b91505092915050565b600082601f830112611de057600080fd5b8135611df0848260208601611ce9565b91505092915050565b600081359050611e0881612e35565b92915050565b600060208284031215611e2057600080fd5b6000611e2e84828501611d27565b91505092915050565b60008060408385031215611e4a57600080fd5b6000611e5885828601611d27565b9250506020611e6985828601611d27565b9150509250929050565b600080600060608486031215611e8857600080fd5b6000611e9686828701611d27565b9350506020611ea786828701611d27565b9250506040611eb886828701611df9565b9150509250925092565b60008060008060808587031215611ed857600080fd5b6000611ee687828801611d27565b9450506020611ef787828801611d27565b9350506040611f0887828801611df9565b925050606085013567ffffffffffffffff811115611f2557600080fd5b611f3187828801611da5565b91505092959194509250565b60008060408385031215611f5057600080fd5b6000611f5e85828601611d27565b9250506020611f6f85828601611d66565b9150509250929050565b60008060408385031215611f8c57600080fd5b6000611f9a85828601611d27565b9250506020611fab85828601611df9565b9150509250929050565b600060208284031215611fc757600080fd5b6000611fd584828501611d7b565b91505092915050565b600060208284031215611ff057600080fd5b6000611ffe84828501611d90565b91505092915050565b600080600080600060a0868803121561201f57600080fd5b600086013567ffffffffffffffff81111561203957600080fd5b61204588828901611dcf565b955050602086013567ffffffffffffffff81111561206257600080fd5b61206e88828901611dcf565b945050604086013567ffffffffffffffff81111561208b57600080fd5b61209788828901611dcf565b935050606086013567ffffffffffffffff8111156120b457600080fd5b6120c088828901611dcf565b92505060806120d188828901611d66565b9150509295509295909350565b6000602082840312156120f057600080fd5b60006120fe84828501611df9565b91505092915050565b6000806040838503121561211a57600080fd5b600061212885828601611df9565b925050602083013567ffffffffffffffff81111561214557600080fd5b61215185828601611d3c565b9150509250929050565b6000806040838503121561216e57600080fd5b600061217c85828601611df9565b925050602061218d85828601611df9565b9150509250929050565b6121a08161289a565b82525050565b6121af816128ac565b82525050565b60006121c08261279c565b6121ca81856127b2565b93506121da81856020860161291d565b6121e381612ae9565b840191505092915050565b60006121f9826127a7565b61220381856127c3565b935061221381856020860161291d565b61221c81612ae9565b840191505092915050565b6000612232826127a7565b61223c81856127d4565b935061224c81856020860161291d565b80840191505092915050565b60006122656032836127c3565b915061227082612afa565b604082019050919050565b60006122886025836127c3565b915061229382612b49565b604082019050919050565b60006122ab601c836127c3565b91506122b682612b98565b602082019050919050565b60006122ce6024836127c3565b91506122d982612bc1565b604082019050919050565b60006122f16019836127c3565b91506122fc82612c10565b602082019050919050565b60006123146029836127c3565b915061231f82612c39565b604082019050919050565b6000612337603e836127c3565b915061234282612c88565b604082019050919050565b600061235a6020836127c3565b915061236582612cd7565b602082019050919050565b600061237d6018836127c3565b915061238882612d00565b602082019050919050565b60006123a06021836127c3565b91506123ab82612d29565b604082019050919050565b60006123c3600c836127d4565b91506123ce82612d78565b600c82019050919050565b60006123e6602e836127c3565b91506123f182612da1565b604082019050919050565b61240581612904565b82525050565b60006124178284612227565b915081905092915050565b600061242e8285612227565b915061243a8284612227565b91508190509392505050565b6000612451826123b6565b9150819050919050565b60006020820190506124706000830184612197565b92915050565b600060808201905061248b6000830187612197565b6124986020830186612197565b6124a560408301856123fc565b81810360608301526124b781846121b5565b905095945050505050565b60006020820190506124d760008301846121a6565b92915050565b600060208201905081810360008301526124f781846121ee565b905092915050565b600060a082019050818103600083015261251981886121ee565b9050818103602083015261252d81876121ee565b9050818103604083015261254181866121ee565b9050818103606083015261255581856121ee565b905061256460808301846121a6565b9695505050505050565b6000602082019050818103600083015261258781612258565b9050919050565b600060208201905081810360008301526125a78161227b565b9050919050565b600060208201905081810360008301526125c78161229e565b9050919050565b600060208201905081810360008301526125e7816122c1565b9050919050565b60006020820190508181036000830152612607816122e4565b9050919050565b6000602082019050818103600083015261262781612307565b9050919050565b600060208201905081810360008301526126478161232a565b9050919050565b600060208201905081810360008301526126678161234d565b9050919050565b6000602082019050818103600083015261268781612370565b9050919050565b600060208201905081810360008301526126a781612393565b9050919050565b600060208201905081810360008301526126c7816123d9565b9050919050565b60006020820190506126e360008301846123fc565b92915050565b60006126f3612704565b90506126ff8282612982565b919050565b6000604051905090565b600067ffffffffffffffff82111561272957612728612aba565b5b602082029050602081019050919050565b600067ffffffffffffffff82111561275557612754612aba565b5b61275e82612ae9565b9050602081019050919050565b600067ffffffffffffffff82111561278657612785612aba565b5b61278f82612ae9565b9050602081019050919050565b600081519050919050565b600081519050919050565b600082825260208201905092915050565b600082825260208201905092915050565b600081905092915050565b60006127ea82612904565b91506127f583612904565b9250827fffffffffffffffffffffffffffffffffffffffffffffffffffffffffffffffff0382111561282a57612829612a2d565b5b828201905092915050565b600061284082612904565b915061284b83612904565b92508261285b5761285a612a5c565b5b828204905092915050565b600061287182612904565b915061287c83612904565b92508282101561288f5761288e612a2d565b5b828203905092915050565b60006128a5826128e4565b9050919050565b60008115159050919050565b60007fffffffff0000000000000000000000000000000000000000000000000000000082169050919050565b600073ffffffffffffffffffffffffffffffffffffffff82169050919050565b6000819050919050565b82818337600083830152505050565b60005b8381101561293b578082015181840152602081019050612920565b8381111561294a576000848401525b50505050565b6000600282049050600182168061296857607f821691505b6020821081141561297c5761297b612a8b565b5b50919050565b61298b82612ae9565b810181811067ffffffffffffffff821117156129aa576129a9612aba565b5b80604052505050565b60006129be82612904565b91507fffffffffffffffffffffffffffffffffffffffffffffffffffffffffffffffff8214156129f1576129f0612a2d565b5b600182019050919050565b6000612a0782612904565b9150612a1283612904565b925082612a2257612a21612a5c565b5b828206905092915050565b7f4e487b7100000000000000000000000000000000000000000000000000000000600052601160045260246000fd5b7f4e487b7100000000000000000000000000000000000000000000000000000000600052601260045260246000fd5b7f4e487b7100000000000000000000000000000000000000000000000000000000600052602260045260246000fd5b7f4e487b7100000000000000000000000000000000000000000000000000000000600052604160045260246000fd5b6000601f19601f8301169050919050565b7f4552433732313a207472616e7366657220746f206e6f6e20455243373231526560008201527f63656976657220696d706c656d656e7465720000000000000000000000000000602082015250565b7f4552433732313a207472616e736665722066726f6d20696e636f72726563742060008201527f6f776e6572000000000000000000000000000000000000000000000000000000602082015250565b7f4552433732313a20746f6b656e20616c7265616479206d696e74656400000000600082015250565b7f4552433732313a207472616e7366657220746f20746865207a65726f2061646460008201527f7265737300000000000000000000000000000000000000000000000000000000602082015250565b7f4552433732313a20617070726f766520746f2063616c6c657200000000000000600082015250565b7f4552433732313a2061646472657373207a65726f206973206e6f74206120766160008201527f6c6964206f776e65720000000000000000000000000000000000000000000000602082015250565b7f4552433732313a20617070726f76652063616c6c6572206973206e6f7420746f60008201527f6b656e206f776e6572206e6f7220617070726f76656420666f7220616c6c0000602082015250565b7f4552433732313a206d696e7420746f20746865207a65726f2061646472657373600082015250565b7f4552433732313a20696e76616c696420746f6b656e2049440000000000000000600082015250565b7f4552433732313a20617070726f76616c20746f2063757272656e74206f776e6560008201527f7200000000000000000000000000000000000000000000000000000000000000602082015250565b7f4e657720446f6e6174696f6e0000000000000000000000000000000000000000600082015250565b7f4552433732313a2063616c6c6572206973206e6f7420746f6b656e206f776e6560008201527f72206e6f7220617070726f766564000000000000000000000000000000000000602082015250565b612df98161289a565b8114612e0457600080fd5b50565b612e10816128ac565b8114612e1b57600080fd5b50565b612e27816128b8565b8114612e3257600080fd5b50565b612e3e81612904565b8114612e4957600080fd5b5056fea2646970667358221220a048b4ca2d9c737d76a676e2d80071c43d9bb71960346ed9cb0efce71cddddd464736f6c63430008010033",
  "immutableReferences": {},
  "source": "// SPDX-License-Identifier: MIT\r\n\r\npragma solidity ^0.8.0;\r\n\r\nimport \"@openzeppelin/contracts/token/ERC721/ERC721.sol\";\r\n\r\ncontract GrantChain is ERC721(\"GrantChain\", \"GC\") {\r\n    event SystemLog(string indexed EventAction, string indexed Data);\r\n\r\n    struct donation {\r\n        string emailId;\r\n        string firstname;\r\n        string lastname;\r\n        string amount;\r\n        bool alloted;\r\n    }\r\n\r\n    uint256 public donationCount;\r\n    mapping(uint256 => donation) public donationDetails;\r\n\r\n    uint256 public campaignCount;\r\n\r\n    uint256 public projectCount;\r\n    mapping(uint256 => uint256[]) public projectbuildils;\r\n\r\n    function createBundil(uint _projectCount, uint256 [] memory bundillist) public {\r\n        projectbuildils[_projectCount] = bundillist;\r\n        projectCount += 1;\r\n    }\r\n\r\n    function plusCampaignCount() public {\r\n        campaignCount += 1;\r\n    }\r\n\r\n    function newDonation(\r\n        string memory _emailId,\r\n        string memory _firstname,\r\n        string memory _lastname,\r\n        string memory _amount,\r\n        bool _alloted\r\n    ) public {\r\n        donationDetails[donationCount] = donation(\r\n            _emailId,\r\n            _firstname,\r\n            _lastname,\r\n            _amount,\r\n            _alloted\r\n        );\r\n        _mint(msg.sender, donationCount);\r\n        emit SystemLog(\"New Donation\", _emailId);\r\n        donationCount += 1;\r\n    }\r\n}\r\n",
  "sourcePath": "C:\\Lab\\CharityApp\\app\\scontract\\contracts\\GrantChain.sol",
  "compiler": {
    "name": "solc",
    "version": "0.8.1+commit.df193b15.Emscripten.clang"
  },
  "schemaVersion": "3.4.8",
  "updatedAt": "2022-08-23T07:14:59.428Z",
  "networkType": "ethereum",
  "devdoc": {
    "kind": "dev",
    "methods": {
      "approve(address,uint256)": {
        "details": "See {IERC721-approve}."
      },
      "balanceOf(address)": {
        "details": "See {IERC721-balanceOf}."
      },
      "getApproved(uint256)": {
        "details": "See {IERC721-getApproved}."
      },
      "isApprovedForAll(address,address)": {
        "details": "See {IERC721-isApprovedForAll}."
      },
      "name()": {
        "details": "See {IERC721Metadata-name}."
      },
      "ownerOf(uint256)": {
        "details": "See {IERC721-ownerOf}."
      },
      "safeTransferFrom(address,address,uint256)": {
        "details": "See {IERC721-safeTransferFrom}."
      },
      "safeTransferFrom(address,address,uint256,bytes)": {
        "details": "See {IERC721-safeTransferFrom}."
      },
      "setApprovalForAll(address,bool)": {
        "details": "See {IERC721-setApprovalForAll}."
      },
      "supportsInterface(bytes4)": {
        "details": "See {IERC165-supportsInterface}."
      },
      "symbol()": {
        "details": "See {IERC721Metadata-symbol}."
      },
      "tokenURI(uint256)": {
        "details": "See {IERC721Metadata-tokenURI}."
      },
      "transferFrom(address,address,uint256)": {
        "details": "See {IERC721-transferFrom}."
      }
    },
    "version": 1
  },
  "userdoc": {
    "kind": "user",
    "methods": {},
    "version": 1
  }
}