{
  "contractName": "GrantChain",
  "abi": [
    {
      "anonymous": false,
      "inputs": [
        {
          "indexed": true,
          "internalType": "address",
          "name": "owner",
          "type": "address"
        },
        {
          "indexed": true,
          "internalType": "address",
          "name": "approved",
          "type": "address"
        },
        {
          "indexed": true,
          "internalType": "uint256",
          "name": "tokenId",
          "type": "uint256"
        }
      ],
      "name": "Approval",
      "type": "event"
    },
    {
      "anonymous": false,
      "inputs": [
        {
          "indexed": true,
          "internalType": "address",
          "name": "owner",
          "type": "address"
        },
        {
          "indexed": true,
          "internalType": "address",
          "name": "operator",
          "type": "address"
        },
        {
          "indexed": false,
          "internalType": "bool",
          "name": "approved",
          "type": "bool"
        }
      ],
      "name": "ApprovalForAll",
      "type": "event"
    },
    {
      "anonymous": false,
      "inputs": [
        {
          "indexed": true,
          "internalType": "string",
          "name": "EventAction",
          "type": "string"
        },
        {
          "indexed": true,
          "internalType": "string",
          "name": "Data",
          "type": "string"
        }
      ],
      "name": "SystemLog",
      "type": "event"
    },
    {
      "anonymous": false,
      "inputs": [
        {
          "indexed": true,
          "internalType": "address",
          "name": "from",
          "type": "address"
        },
        {
          "indexed": true,
          "internalType": "address",
          "name": "to",
          "type": "address"
        },
        {
          "indexed": true,
          "internalType": "uint256",
          "name": "tokenId",
          "type": "uint256"
        }
      ],
      "name": "Transfer",
      "type": "event"
    },
    {
      "inputs": [
        {
          "internalType": "address",
          "name": "to",
          "type": "address"
        },
        {
          "internalType": "uint256",
          "name": "tokenId",
          "type": "uint256"
        }
      ],
      "name": "approve",
      "outputs": [],
      "stateMutability": "nonpayable",
      "type": "function"
    },
    {
      "inputs": [
        {
          "internalType": "address",
          "name": "owner",
          "type": "address"
        }
      ],
      "name": "balanceOf",
      "outputs": [
        {
          "internalType": "uint256",
          "name": "",
          "type": "uint256"
        }
      ],
      "stateMutability": "view",
      "type": "function",
      "constant": true
    },
    {
      "inputs": [],
      "name": "campaignCount",
      "outputs": [
        {
          "internalType": "uint256",
          "name": "",
          "type": "uint256"
        }
      ],
      "stateMutability": "view",
      "type": "function",
      "constant": true
    },
    {
      "inputs": [],
      "name": "donationCount",
      "outputs": [
        {
          "internalType": "uint256",
          "name": "",
          "type": "uint256"
        }
      ],
      "stateMutability": "view",
      "type": "function",
      "constant": true
    },
    {
      "inputs": [
        {
          "internalType": "uint256",
          "name": "",
          "type": "uint256"
        }
      ],
      "name": "donationDetails",
      "outputs": [
        {
          "internalType": "string",
          "name": "emailId",
          "type": "string"
        },
        {
          "internalType": "string",
          "name": "firstname",
          "type": "string"
        },
        {
          "internalType": "string",
          "name": "lastname",
          "type": "string"
        },
        {
          "internalType": "string",
          "name": "campaignID",
          "type": "string"
        },
        {
          "internalType": "string",
          "name": "campaignName",
          "type": "string"
        },
        {
          "internalType": "string",
          "name": "amount",
          "type": "string"
        },
        {
          "internalType": "bool",
          "name": "alloted",
          "type": "bool"
        }
      ],
      "stateMutability": "view",
      "type": "function",
      "constant": true
    },
    {
      "inputs": [
        {
          "internalType": "uint256",
          "name": "tokenId",
          "type": "uint256"
        }
      ],
      "name": "getApproved",
      "outputs": [
        {
          "internalType": "address",
          "name": "",
          "type": "address"
        }
      ],
      "stateMutability": "view",
      "type": "function",
      "constant": true
    },
    {
      "inputs": [
        {
          "internalType": "address",
          "name": "owner",
          "type": "address"
        },
        {
          "internalType": "address",
          "name": "operator",
          "type": "address"
        }
      ],
      "name": "isApprovedForAll",
      "outputs": [
        {
          "internalType": "bool",
          "name": "",
          "type": "bool"
        }
      ],
      "stateMutability": "view",
      "type": "function",
      "constant": true
    },
    {
      "inputs": [],
      "name": "name",
      "outputs": [
        {
          "internalType": "string",
          "name": "",
          "type": "string"
        }
      ],
      "stateMutability": "view",
      "type": "function",
      "constant": true
    },
    {
      "inputs": [
        {
          "internalType": "uint256",
          "name": "tokenId",
          "type": "uint256"
        }
      ],
      "name": "ownerOf",
      "outputs": [
        {
          "internalType": "address",
          "name": "",
          "type": "address"
        }
      ],
      "stateMutability": "view",
      "type": "function",
      "constant": true
    },
    {
      "inputs": [],
      "name": "projectCount",
      "outputs": [
        {
          "internalType": "uint256",
          "name": "",
          "type": "uint256"
        }
      ],
      "stateMutability": "view",
      "type": "function",
      "constant": true
    },
    {
      "inputs": [
        {
          "internalType": "address",
          "name": "from",
          "type": "address"
        },
        {
          "internalType": "address",
          "name": "to",
          "type": "address"
        },
        {
          "internalType": "uint256",
          "name": "tokenId",
          "type": "uint256"
        }
      ],
      "name": "safeTransferFrom",
      "outputs": [],
      "stateMutability": "nonpayable",
      "type": "function"
    },
    {
      "inputs": [
        {
          "internalType": "address",
          "name": "from",
          "type": "address"
        },
        {
          "internalType": "address",
          "name": "to",
          "type": "address"
        },
        {
          "internalType": "uint256",
          "name": "tokenId",
          "type": "uint256"
        },
        {
          "internalType": "bytes",
          "name": "data",
          "type": "bytes"
        }
      ],
      "name": "safeTransferFrom",
      "outputs": [],
      "stateMutability": "nonpayable",
      "type": "function"
    },
    {
      "inputs": [
        {
          "internalType": "address",
          "name": "operator",
          "type": "address"
        },
        {
          "internalType": "bool",
          "name": "approved",
          "type": "bool"
        }
      ],
      "name": "setApprovalForAll",
      "outputs": [],
      "stateMutability": "nonpayable",
      "type": "function"
    },
    {
      "inputs": [
        {
          "internalType": "bytes4",
          "name": "interfaceId",
          "type": "bytes4"
        }
      ],
      "name": "supportsInterface",
      "outputs": [
        {
          "internalType": "bool",
          "name": "",
          "type": "bool"
        }
      ],
      "stateMutability": "view",
      "type": "function",
      "constant": true
    },
    {
      "inputs": [],
      "name": "symbol",
      "outputs": [
        {
          "internalType": "string",
          "name": "",
          "type": "string"
        }
      ],
      "stateMutability": "view",
      "type": "function",
      "constant": true
    },
    {
      "inputs": [
        {
          "internalType": "uint256",
          "name": "tokenId",
          "type": "uint256"
        }
      ],
      "name": "tokenURI",
      "outputs": [
        {
          "internalType": "string",
          "name": "",
          "type": "string"
        }
      ],
      "stateMutability": "view",
      "type": "function",
      "constant": true
    },
    {
      "inputs": [
        {
          "internalType": "address",
          "name": "from",
          "type": "address"
        },
        {
          "internalType": "address",
          "name": "to",
          "type": "address"
        },
        {
          "internalType": "uint256",
          "name": "tokenId",
          "type": "uint256"
        }
      ],
      "name": "transferFrom",
      "outputs": [],
      "stateMutability": "nonpayable",
      "type": "function"
    },
    {
      "inputs": [],
      "name": "plusCampaignCount",
      "outputs": [],
      "stateMutability": "nonpayable",
      "type": "function"
    },
    {
      "inputs": [],
      "name": "plusProjectCount",
      "outputs": [],
      "stateMutability": "nonpayable",
      "type": "function"
    },
    {
      "inputs": [
        {
          "internalType": "string",
          "name": "_emailId",
          "type": "string"
        },
        {
          "internalType": "string",
          "name": "_firstname",
          "type": "string"
        },
        {
          "internalType": "string",
          "name": "_lastname",
          "type": "string"
        },
        {
          "internalType": "string",
          "name": "_campaignName",
          "type": "string"
        },
        {
          "internalType": "string",
          "name": "_campaignID",
          "type": "string"
        },
        {
          "internalType": "string",
          "name": "_amount",
          "type": "string"
        },
        {
          "internalType": "bool",
          "name": "_alloted",
          "type": "bool"
        }
      ],
      "name": "newDonation",
      "outputs": [],
      "stateMutability": "nonpayable",
      "type": "function"
    }
  ],
  "bytecode": "0x60806040523480156200001157600080fd5b506040518060400160405280600a81526020017f4772616e74436861696e000000000000000000000000000000000000000000008152506040518060400160405280600281526020017f4743000000000000000000000000000000000000000000000000000000000000815250816000908051906020019062000096929190620000b8565b508060019080519060200190620000af929190620000b8565b505050620001cd565b828054620000c69062000168565b90600052602060002090601f016020900481019282620000ea576000855562000136565b82601f106200010557805160ff191683800117855562000136565b8280016001018555821562000136579182015b828111156200013557825182559160200191906001019062000118565b5b50905062000145919062000149565b5090565b5b80821115620001645760008160009055506001016200014a565b5090565b600060028204905060018216806200018157607f821691505b602082108114156200019857620001976200019e565b5b50919050565b7f4e487b7100000000000000000000000000000000000000000000000000000000600052602260045260246000fd5b612e2280620001dd6000396000f3fe608060405234801561001057600080fd5b506004361061012c5760003560e01c80635ed150ad116100ad57806395d89b411161007157806395d89b4114610323578063a22cb46514610341578063b88d4fde1461035d578063c87b56dd14610379578063e985e9c5146103a95761012c565b80635ed150ad1461027f5780636352211e146102895780636420b8f6146102b957806370a08231146102d55780637274e30d146103055761012c565b806323b872dd116100f457806323b872dd146102015780632abfab4d1461021d57806336fbad261461023b5780633e24eeb91461025957806342842e0e146102635761012c565b806301ffc9a71461013157806306fdde0314610161578063081812fc1461017f578063095ea7b3146101af57806323780340146101cb575b600080fd5b61014b60048036038101906101469190611f90565b6103d9565b6040516101589190612464565b60405180910390f35b6101696104bb565b604051610176919061247f565b60405180910390f35b61019960048036038101906101949190612110565b61054d565b6040516101a691906123fd565b60405180910390f35b6101c960048036038101906101c49190611f54565b610593565b005b6101e560048036038101906101e09190612110565b6106ab565b6040516101f897969594939291906124a1565b60405180910390f35b61021b60048036038101906102169190611e4e565b610a2a565b005b610225610a8a565b604051610232919061269a565b60405180910390f35b610243610a90565b604051610250919061269a565b60405180910390f35b610261610a96565b005b61027d60048036038101906102789190611e4e565b610ab2565b005b610287610ad2565b005b6102a3600480360381019061029e9190612110565b610aee565b6040516102b091906123fd565b60405180910390f35b6102d360048036038101906102ce9190611fe2565b610ba0565b005b6102ef60048036038101906102ea9190611de9565b610d40565b6040516102fc919061269a565b60405180910390f35b61030d610df8565b60405161031a919061269a565b60405180910390f35b61032b610dfe565b604051610338919061247f565b60405180910390f35b61035b60048036038101906103569190611f18565b610e90565b005b61037760048036038101906103729190611e9d565b610ea6565b005b610393600480360381019061038e9190612110565b610f08565b6040516103a0919061247f565b60405180910390f35b6103c360048036038101906103be9190611e12565b610f70565b6040516103d09190612464565b60405180910390f35b60007f80ac58cd000000000000000000000000000000000000000000000000000000007bffffffffffffffffffffffffffffffffffffffffffffffffffffffff1916827bffffffffffffffffffffffffffffffffffffffffffffffffffffffff191614806104a457507f5b5e139f000000000000000000000000000000000000000000000000000000007bffffffffffffffffffffffffffffffffffffffffffffffffffffffff1916827bffffffffffffffffffffffffffffffffffffffffffffffffffffffff1916145b806104b457506104b382611004565b5b9050919050565b6060600080546104ca906128f0565b80601f01602080910402602001604051908101604052809291908181526020018280546104f6906128f0565b80156105435780601f1061051857610100808354040283529160200191610543565b820191906000526020600020905b81548152906001019060200180831161052657829003601f168201915b5050505050905090565b60006105588261106e565b6004600083815260200190815260200160002060009054906101000a900473ffffffffffffffffffffffffffffffffffffffff169050919050565b600061059e82610aee565b90508073ffffffffffffffffffffffffffffffffffffffff168373ffffffffffffffffffffffffffffffffffffffff16141561060f576040517f08c379a00000000000000000000000000000000000000000000000000000000081526004016106069061265a565b60405180910390fd5b8073ffffffffffffffffffffffffffffffffffffffff1661062e6110b9565b73ffffffffffffffffffffffffffffffffffffffff16148061065d575061065c816106576110b9565b610f70565b5b61069c576040517f08c379a0000000000000000000000000000000000000000000000000000000008152600401610693906125fa565b60405180910390fd5b6106a683836110c1565b505050565b60076020528060005260406000206000915090508060000180546106ce906128f0565b80601f01602080910402602001604051908101604052809291908181526020018280546106fa906128f0565b80156107475780601f1061071c57610100808354040283529160200191610747565b820191906000526020600020905b81548152906001019060200180831161072a57829003601f168201915b50505050509080600101805461075c906128f0565b80601f0160208091040260200160405190810160405280929190818152602001828054610788906128f0565b80156107d55780601f106107aa576101008083540402835291602001916107d5565b820191906000526020600020905b8154815290600101906020018083116107b857829003601f168201915b5050505050908060020180546107ea906128f0565b80601f0160208091040260200160405190810160405280929190818152602001828054610816906128f0565b80156108635780601f1061083857610100808354040283529160200191610863565b820191906000526020600020905b81548152906001019060200180831161084657829003601f168201915b505050505090806003018054610878906128f0565b80601f01602080910402602001604051908101604052809291908181526020018280546108a4906128f0565b80156108f15780601f106108c6576101008083540402835291602001916108f1565b820191906000526020600020905b8154815290600101906020018083116108d457829003601f168201915b505050505090806004018054610906906128f0565b80601f0160208091040260200160405190810160405280929190818152602001828054610932906128f0565b801561097f5780601f106109545761010080835404028352916020019161097f565b820191906000526020600020905b81548152906001019060200180831161096257829003601f168201915b505050505090806005018054610994906128f0565b80601f01602080910402602001604051908101604052809291908181526020018280546109c0906128f0565b8015610a0d5780601f106109e257610100808354040283529160200191610a0d565b820191906000526020600020905b8154815290600101906020018083116109f057829003601f168201915b5050505050908060060160009054906101000a900460ff16905087565b610a3b610a356110b9565b8261117a565b610a7a576040517f08c379a0000000000000000000000000000000000000000000000000000000008152600401610a719061267a565b60405180910390fd5b610a8583838361120f565b505050565b60065481565b60095481565b600160096000828254610aa9919061277f565b92505081905550565b610acd83838360405180602001604052806000815250610ea6565b505050565b600160086000828254610ae5919061277f565b92505081905550565b6000806002600084815260200190815260200160002060009054906101000a900473ffffffffffffffffffffffffffffffffffffffff169050600073ffffffffffffffffffffffffffffffffffffffff168173ffffffffffffffffffffffffffffffffffffffff161415610b97576040517f08c379a0000000000000000000000000000000000000000000000000000000008152600401610b8e9061263a565b60405180910390fd5b80915050919050565b6040518060e001604052808881526020018781526020018681526020018581526020018481526020018381526020018215158152506007600060065481526020019081526020016000206000820151816000019080519060200190610c06929190611c0d565b506020820151816001019080519060200190610c23929190611c0d565b506040820151816002019080519060200190610c40929190611c0d565b506060820151816003019080519060200190610c5d929190611c0d565b506080820151816004019080519060200190610c7a929190611c0d565b5060a0820151816005019080519060200190610c97929190611c0d565b5060c08201518160060160006101000a81548160ff021916908315150217905550905050610cc733600654611476565b86604051610cd591906123ad565b6040518091039020604051610ce9906123e8565b60405180910390207f01a091983a6d3afd30e9acedef086a8b23893ff0112044a1cfe7d3be7c572d1860405160405180910390a3600160066000828254610d30919061277f565b9250508190555050505050505050565b60008073ffffffffffffffffffffffffffffffffffffffff168273ffffffffffffffffffffffffffffffffffffffff161415610db1576040517f08c379a0000000000000000000000000000000000000000000000000000000008152600401610da8906125da565b60405180910390fd5b600360008373ffffffffffffffffffffffffffffffffffffffff1673ffffffffffffffffffffffffffffffffffffffff168152602001908152602001600020549050919050565b60085481565b606060018054610e0d906128f0565b80601f0160208091040260200160405190810160405280929190818152602001828054610e39906128f0565b8015610e865780601f10610e5b57610100808354040283529160200191610e86565b820191906000526020600020905b815481529060010190602001808311610e6957829003601f168201915b5050505050905090565b610ea2610e9b6110b9565b8383611650565b5050565b610eb7610eb16110b9565b8361117a565b610ef6576040517f08c379a0000000000000000000000000000000000000000000000000000000008152600401610eed9061267a565b60405180910390fd5b610f02848484846117bd565b50505050565b6060610f138261106e565b6000610f1d611819565b90506000815111610f3d5760405180602001604052806000815250610f68565b80610f4784611830565b604051602001610f589291906123c4565b6040516020818303038152906040525b915050919050565b6000600560008473ffffffffffffffffffffffffffffffffffffffff1673ffffffffffffffffffffffffffffffffffffffff16815260200190815260200160002060008373ffffffffffffffffffffffffffffffffffffffff1673ffffffffffffffffffffffffffffffffffffffff16815260200190815260200160002060009054906101000a900460ff16905092915050565b60007f01ffc9a7000000000000000000000000000000000000000000000000000000007bffffffffffffffffffffffffffffffffffffffffffffffffffffffff1916827bffffffffffffffffffffffffffffffffffffffffffffffffffffffff1916149050919050565b611077816119dd565b6110b6576040517f08c379a00000000000000000000000000000000000000000000000000000000081526004016110ad9061263a565b60405180910390fd5b50565b600033905090565b816004600083815260200190815260200160002060006101000a81548173ffffffffffffffffffffffffffffffffffffffff021916908373ffffffffffffffffffffffffffffffffffffffff160217905550808273ffffffffffffffffffffffffffffffffffffffff1661113483610aee565b73ffffffffffffffffffffffffffffffffffffffff167f8c5be1e5ebec7d5bd14f71427d1e84f3dd0314c0f7b2291e5b200ac8c7c3b92560405160405180910390a45050565b60008061118683610aee565b90508073ffffffffffffffffffffffffffffffffffffffff168473ffffffffffffffffffffffffffffffffffffffff1614806111c857506111c78185610f70565b5b8061120657508373ffffffffffffffffffffffffffffffffffffffff166111ee8461054d565b73ffffffffffffffffffffffffffffffffffffffff16145b91505092915050565b8273ffffffffffffffffffffffffffffffffffffffff1661122f82610aee565b73ffffffffffffffffffffffffffffffffffffffff1614611285576040517f08c379a000000000000000000000000000000000000000000000000000000000815260040161127c9061255a565b60405180910390fd5b600073ffffffffffffffffffffffffffffffffffffffff168273ffffffffffffffffffffffffffffffffffffffff1614156112f5576040517f08c379a00000000000000000000000000000000000000000000000000000000081526004016112ec9061259a565b60405180910390fd5b611300838383611a49565b61130b6000826110c1565b6001600360008573ffffffffffffffffffffffffffffffffffffffff1673ffffffffffffffffffffffffffffffffffffffff168152602001908152602001600020600082825461135b9190612806565b925050819055506001600360008473ffffffffffffffffffffffffffffffffffffffff1673ffffffffffffffffffffffffffffffffffffffff16815260200190815260200160002060008282546113b2919061277f565b92505081905550816002600083815260200190815260200160002060006101000a81548173ffffffffffffffffffffffffffffffffffffffff021916908373ffffffffffffffffffffffffffffffffffffffff160217905550808273ffffffffffffffffffffffffffffffffffffffff168473ffffffffffffffffffffffffffffffffffffffff167fddf252ad1be2c89b69c2b068fc378daa952ba7f163c4a11628f55a4df523b3ef60405160405180910390a4611471838383611a4e565b505050565b600073ffffffffffffffffffffffffffffffffffffffff168273ffffffffffffffffffffffffffffffffffffffff1614156114e6576040517f08c379a00000000000000000000000000000000000000000000000000000000081526004016114dd9061261a565b60405180910390fd5b6114ef816119dd565b1561152f576040517f08c379a00000000000000000000000000000000000000000000000000000000081526004016115269061257a565b60405180910390fd5b61153b60008383611a49565b6001600360008473ffffffffffffffffffffffffffffffffffffffff1673ffffffffffffffffffffffffffffffffffffffff168152602001908152602001600020600082825461158b919061277f565b92505081905550816002600083815260200190815260200160002060006101000a81548173ffffffffffffffffffffffffffffffffffffffff021916908373ffffffffffffffffffffffffffffffffffffffff160217905550808273ffffffffffffffffffffffffffffffffffffffff16600073ffffffffffffffffffffffffffffffffffffffff167fddf252ad1be2c89b69c2b068fc378daa952ba7f163c4a11628f55a4df523b3ef60405160405180910390a461164c60008383611a4e565b5050565b8173ffffffffffffffffffffffffffffffffffffffff168373ffffffffffffffffffffffffffffffffffffffff1614156116bf576040517f08c379a00000000000000000000000000000000000000000000000000000000081526004016116b6906125ba565b60405180910390fd5b80600560008573ffffffffffffffffffffffffffffffffffffffff1673ffffffffffffffffffffffffffffffffffffffff16815260200190815260200160002060008473ffffffffffffffffffffffffffffffffffffffff1673ffffffffffffffffffffffffffffffffffffffff16815260200190815260200160002060006101000a81548160ff0219169083151502179055508173ffffffffffffffffffffffffffffffffffffffff168373ffffffffffffffffffffffffffffffffffffffff167f17307eab39ab6107e8899845ad3d59bd9653f200f220920489ca2b5937696c31836040516117b09190612464565b60405180910390a3505050565b6117c884848461120f565b6117d484848484611a53565b611813576040517f08c379a000000000000000000000000000000000000000000000000000000000815260040161180a9061253a565b60405180910390fd5b50505050565b606060405180602001604052806000815250905090565b60606000821415611878576040518060400160405280600181526020017f300000000000000000000000000000000000000000000000000000000000000081525090506119d8565b600082905060005b600082146118aa57808061189390612953565b915050600a826118a391906127d5565b9150611880565b60008167ffffffffffffffff8111156118ec577f4e487b7100000000000000000000000000000000000000000000000000000000600052604160045260246000fd5b6040519080825280601f01601f19166020018201604052801561191e5781602001600182028036833780820191505090505b5090505b600085146119d1576001826119379190612806565b9150600a85611946919061299c565b6030611952919061277f565b60f81b81838151811061198e577f4e487b7100000000000000000000000000000000000000000000000000000000600052603260045260246000fd5b60200101907effffffffffffffffffffffffffffffffffffffffffffffffffffffffffffff1916908160001a905350600a856119ca91906127d5565b9450611922565b8093505050505b919050565b60008073ffffffffffffffffffffffffffffffffffffffff166002600084815260200190815260200160002060009054906101000a900473ffffffffffffffffffffffffffffffffffffffff1673ffffffffffffffffffffffffffffffffffffffff1614159050919050565b505050565b505050565b6000611a748473ffffffffffffffffffffffffffffffffffffffff16611bea565b15611bdd578373ffffffffffffffffffffffffffffffffffffffff1663150b7a02611a9d6110b9565b8786866040518563ffffffff1660e01b8152600401611abf9493929190612418565b602060405180830381600087803b158015611ad957600080fd5b505af1925050508015611b0a57506040513d601f19601f82011682018060405250810190611b079190611fb9565b60015b611b8d573d8060008114611b3a576040519150601f19603f3d011682016040523d82523d6000602084013e611b3f565b606091505b50600081511415611b85576040517f08c379a0000000000000000000000000000000000000000000000000000000008152600401611b7c9061253a565b60405180910390fd5b805181602001fd5b63150b7a0260e01b7bffffffffffffffffffffffffffffffffffffffffffffffffffffffff1916817bffffffffffffffffffffffffffffffffffffffffffffffffffffffff191614915050611be2565b600190505b949350505050565b6000808273ffffffffffffffffffffffffffffffffffffffff163b119050919050565b828054611c19906128f0565b90600052602060002090601f016020900481019282611c3b5760008555611c82565b82601f10611c5457805160ff1916838001178555611c82565b82800160010185558215611c82579182015b82811115611c81578251825591602001919060010190611c66565b5b509050611c8f9190611c93565b5090565b5b80821115611cac576000816000905550600101611c94565b5090565b6000611cc3611cbe846126da565b6126b5565b905082815260208101848484011115611cdb57600080fd5b611ce68482856128ae565b509392505050565b6000611d01611cfc8461270b565b6126b5565b905082815260208101848484011115611d1957600080fd5b611d248482856128ae565b509392505050565b600081359050611d3b81612d90565b92915050565b600081359050611d5081612da7565b92915050565b600081359050611d6581612dbe565b92915050565b600081519050611d7a81612dbe565b92915050565b600082601f830112611d9157600080fd5b8135611da1848260208601611cb0565b91505092915050565b600082601f830112611dbb57600080fd5b8135611dcb848260208601611cee565b91505092915050565b600081359050611de381612dd5565b92915050565b600060208284031215611dfb57600080fd5b6000611e0984828501611d2c565b91505092915050565b60008060408385031215611e2557600080fd5b6000611e3385828601611d2c565b9250506020611e4485828601611d2c565b9150509250929050565b600080600060608486031215611e6357600080fd5b6000611e7186828701611d2c565b9350506020611e8286828701611d2c565b9250506040611e9386828701611dd4565b9150509250925092565b60008060008060808587031215611eb357600080fd5b6000611ec187828801611d2c565b9450506020611ed287828801611d2c565b9350506040611ee387828801611dd4565b925050606085013567ffffffffffffffff811115611f0057600080fd5b611f0c87828801611d80565b91505092959194509250565b60008060408385031215611f2b57600080fd5b6000611f3985828601611d2c565b9250506020611f4a85828601611d41565b9150509250929050565b60008060408385031215611f6757600080fd5b6000611f7585828601611d2c565b9250506020611f8685828601611dd4565b9150509250929050565b600060208284031215611fa257600080fd5b6000611fb084828501611d56565b91505092915050565b600060208284031215611fcb57600080fd5b6000611fd984828501611d6b565b91505092915050565b600080600080600080600060e0888a031215611ffd57600080fd5b600088013567ffffffffffffffff81111561201757600080fd5b6120238a828b01611daa565b975050602088013567ffffffffffffffff81111561204057600080fd5b61204c8a828b01611daa565b965050604088013567ffffffffffffffff81111561206957600080fd5b6120758a828b01611daa565b955050606088013567ffffffffffffffff81111561209257600080fd5b61209e8a828b01611daa565b945050608088013567ffffffffffffffff8111156120bb57600080fd5b6120c78a828b01611daa565b93505060a088013567ffffffffffffffff8111156120e457600080fd5b6120f08a828b01611daa565b92505060c06121018a828b01611d41565b91505092959891949750929550565b60006020828403121561212257600080fd5b600061213084828501611dd4565b91505092915050565b6121428161283a565b82525050565b6121518161284c565b82525050565b60006121628261273c565b61216c8185612752565b935061217c8185602086016128bd565b61218581612a89565b840191505092915050565b600061219b82612747565b6121a58185612763565b93506121b58185602086016128bd565b6121be81612a89565b840191505092915050565b60006121d482612747565b6121de8185612774565b93506121ee8185602086016128bd565b80840191505092915050565b6000612207603283612763565b915061221282612a9a565b604082019050919050565b600061222a602583612763565b915061223582612ae9565b604082019050919050565b600061224d601c83612763565b915061225882612b38565b602082019050919050565b6000612270602483612763565b915061227b82612b61565b604082019050919050565b6000612293601983612763565b915061229e82612bb0565b602082019050919050565b60006122b6602983612763565b91506122c182612bd9565b604082019050919050565b60006122d9603e83612763565b91506122e482612c28565b604082019050919050565b60006122fc602083612763565b915061230782612c77565b602082019050919050565b600061231f601883612763565b915061232a82612ca0565b602082019050919050565b6000612342602183612763565b915061234d82612cc9565b604082019050919050565b6000612365600c83612774565b915061237082612d18565b600c82019050919050565b6000612388602e83612763565b915061239382612d41565b604082019050919050565b6123a7816128a4565b82525050565b60006123b982846121c9565b915081905092915050565b60006123d082856121c9565b91506123dc82846121c9565b91508190509392505050565b60006123f382612358565b9150819050919050565b60006020820190506124126000830184612139565b92915050565b600060808201905061242d6000830187612139565b61243a6020830186612139565b612447604083018561239e565b81810360608301526124598184612157565b905095945050505050565b60006020820190506124796000830184612148565b92915050565b600060208201905081810360008301526124998184612190565b905092915050565b600060e08201905081810360008301526124bb818a612190565b905081810360208301526124cf8189612190565b905081810360408301526124e38188612190565b905081810360608301526124f78187612190565b9050818103608083015261250b8186612190565b905081810360a083015261251f8185612190565b905061252e60c0830184612148565b98975050505050505050565b60006020820190508181036000830152612553816121fa565b9050919050565b600060208201905081810360008301526125738161221d565b9050919050565b6000602082019050818103600083015261259381612240565b9050919050565b600060208201905081810360008301526125b381612263565b9050919050565b600060208201905081810360008301526125d381612286565b9050919050565b600060208201905081810360008301526125f3816122a9565b9050919050565b60006020820190508181036000830152612613816122cc565b9050919050565b60006020820190508181036000830152612633816122ef565b9050919050565b6000602082019050818103600083015261265381612312565b9050919050565b6000602082019050818103600083015261267381612335565b9050919050565b600060208201905081810360008301526126938161237b565b9050919050565b60006020820190506126af600083018461239e565b92915050565b60006126bf6126d0565b90506126cb8282612922565b919050565b6000604051905090565b600067ffffffffffffffff8211156126f5576126f4612a5a565b5b6126fe82612a89565b9050602081019050919050565b600067ffffffffffffffff82111561272657612725612a5a565b5b61272f82612a89565b9050602081019050919050565b600081519050919050565b600081519050919050565b600082825260208201905092915050565b600082825260208201905092915050565b600081905092915050565b600061278a826128a4565b9150612795836128a4565b9250827fffffffffffffffffffffffffffffffffffffffffffffffffffffffffffffffff038211156127ca576127c96129cd565b5b828201905092915050565b60006127e0826128a4565b91506127eb836128a4565b9250826127fb576127fa6129fc565b5b828204905092915050565b6000612811826128a4565b915061281c836128a4565b92508282101561282f5761282e6129cd565b5b828203905092915050565b600061284582612884565b9050919050565b60008115159050919050565b60007fffffffff0000000000000000000000000000000000000000000000000000000082169050919050565b600073ffffffffffffffffffffffffffffffffffffffff82169050919050565b6000819050919050565b82818337600083830152505050565b60005b838110156128db5780820151818401526020810190506128c0565b838111156128ea576000848401525b50505050565b6000600282049050600182168061290857607f821691505b6020821081141561291c5761291b612a2b565b5b50919050565b61292b82612a89565b810181811067ffffffffffffffff8211171561294a57612949612a5a565b5b80604052505050565b600061295e826128a4565b91507fffffffffffffffffffffffffffffffffffffffffffffffffffffffffffffffff821415612991576129906129cd565b5b600182019050919050565b60006129a7826128a4565b91506129b2836128a4565b9250826129c2576129c16129fc565b5b828206905092915050565b7f4e487b7100000000000000000000000000000000000000000000000000000000600052601160045260246000fd5b7f4e487b7100000000000000000000000000000000000000000000000000000000600052601260045260246000fd5b7f4e487b7100000000000000000000000000000000000000000000000000000000600052602260045260246000fd5b7f4e487b7100000000000000000000000000000000000000000000000000000000600052604160045260246000fd5b6000601f19601f8301169050919050565b7f4552433732313a207472616e7366657220746f206e6f6e20455243373231526560008201527f63656976657220696d706c656d656e7465720000000000000000000000000000602082015250565b7f4552433732313a207472616e736665722066726f6d20696e636f72726563742060008201527f6f776e6572000000000000000000000000000000000000000000000000000000602082015250565b7f4552433732313a20746f6b656e20616c7265616479206d696e74656400000000600082015250565b7f4552433732313a207472616e7366657220746f20746865207a65726f2061646460008201527f7265737300000000000000000000000000000000000000000000000000000000602082015250565b7f4552433732313a20617070726f766520746f2063616c6c657200000000000000600082015250565b7f4552433732313a2061646472657373207a65726f206973206e6f74206120766160008201527f6c6964206f776e65720000000000000000000000000000000000000000000000602082015250565b7f4552433732313a20617070726f76652063616c6c6572206973206e6f7420746f60008201527f6b656e206f776e6572206e6f7220617070726f76656420666f7220616c6c0000602082015250565b7f4552433732313a206d696e7420746f20746865207a65726f2061646472657373600082015250565b7f4552433732313a20696e76616c696420746f6b656e2049440000000000000000600082015250565b7f4552433732313a20617070726f76616c20746f2063757272656e74206f776e6560008201527f7200000000000000000000000000000000000000000000000000000000000000602082015250565b7f4e657720446f6e6174696f6e0000000000000000000000000000000000000000600082015250565b7f4552433732313a2063616c6c6572206973206e6f7420746f6b656e206f776e6560008201527f72206e6f7220617070726f766564000000000000000000000000000000000000602082015250565b612d998161283a565b8114612da457600080fd5b50565b612db08161284c565b8114612dbb57600080fd5b50565b612dc781612858565b8114612dd257600080fd5b50565b612dde816128a4565b8114612de957600080fd5b5056fea2646970667358221220372531c49b7c07f546ea589b92227f0f0d03f662734962bb7ab5f01cab64175964736f6c63430008010033",
  "immutableReferences": {},
  "source": "// SPDX-License-Identifier: MIT\r\n\r\npragma solidity ^0.8.0;\r\n\r\nimport \"@openzeppelin/contracts/token/ERC721/ERC721.sol\";\r\n\r\ncontract GrantChain is ERC721(\"GrantChain\", \"GC\") {\r\n    event SystemLog(string indexed EventAction, string indexed Data);\r\n\r\n    struct donation {\r\n        string emailId;\r\n        string firstname;\r\n        string lastname;\r\n        string campaignID;\r\n        string campaignName;\r\n        string amount;\r\n        bool alloted;\r\n    }\r\n\r\n    uint256 public donationCount;\r\n    mapping(uint256 => donation) public donationDetails;\r\n\r\n    uint256 public campaignCount;\r\n    uint256 public projectCount;\r\n\r\n    function plusCampaignCount() public {\r\n        campaignCount += 1;\r\n    }\r\n\r\n    function plusProjectCount() public {\r\n        projectCount += 1;\r\n    }\r\n\r\n    function newDonation(\r\n        string memory _emailId,\r\n        string memory _firstname,\r\n        string memory _lastname,\r\n        string memory _campaignName,\r\n        string memory _campaignID,\r\n        string memory _amount,\r\n        bool _alloted\r\n    ) public {\r\n        donationDetails[donationCount] = donation(\r\n            _emailId,\r\n            _firstname,\r\n            _lastname,\r\n            _campaignName,\r\n            _campaignID,\r\n            _amount,\r\n            _alloted\r\n        );\r\n        _mint(msg.sender, donationCount);\r\n        emit SystemLog(\"New Donation\", _emailId);\r\n        donationCount += 1;\r\n    }\r\n}\r\n",
  "sourcePath": "C:\\Lab\\CharityApp\\app\\scontract\\contracts\\GrantChain.sol",
  "compiler": {
    "name": "solc",
    "version": "0.8.1+commit.df193b15.Emscripten.clang"
  },
  "schemaVersion": "3.4.7",
  "updatedAt": "2022-08-19T04:18:52.665Z",
  "networkType": "ethereum",
  "devdoc": {
    "kind": "dev",
    "methods": {
      "approve(address,uint256)": {
        "details": "See {IERC721-approve}."
      },
      "balanceOf(address)": {
        "details": "See {IERC721-balanceOf}."
      },
      "getApproved(uint256)": {
        "details": "See {IERC721-getApproved}."
      },
      "isApprovedForAll(address,address)": {
        "details": "See {IERC721-isApprovedForAll}."
      },
      "name()": {
        "details": "See {IERC721Metadata-name}."
      },
      "ownerOf(uint256)": {
        "details": "See {IERC721-ownerOf}."
      },
      "safeTransferFrom(address,address,uint256)": {
        "details": "See {IERC721-safeTransferFrom}."
      },
      "safeTransferFrom(address,address,uint256,bytes)": {
        "details": "See {IERC721-safeTransferFrom}."
      },
      "setApprovalForAll(address,bool)": {
        "details": "See {IERC721-setApprovalForAll}."
      },
      "supportsInterface(bytes4)": {
        "details": "See {IERC165-supportsInterface}."
      },
      "symbol()": {
        "details": "See {IERC721Metadata-symbol}."
      },
      "tokenURI(uint256)": {
        "details": "See {IERC721Metadata-tokenURI}."
      },
      "transferFrom(address,address,uint256)": {
        "details": "See {IERC721-transferFrom}."
      }
    },
    "version": 1
  },
  "userdoc": {
    "kind": "user",
    "methods": {},
    "version": 1
  }
}