{
  "contractName": "GrantChain",
  "abi": [
    {
      "anonymous": false,
      "inputs": [
        {
          "indexed": true,
          "internalType": "string",
          "name": "EventAction",
          "type": "string"
        },
        {
          "indexed": true,
          "internalType": "string",
          "name": "Data",
          "type": "string"
        }
      ],
      "name": "SystemLog",
      "type": "event"
    },
    {
      "inputs": [],
      "name": "donationCount",
      "outputs": [
        {
          "internalType": "uint256",
          "name": "",
          "type": "uint256"
        }
      ],
      "stateMutability": "view",
      "type": "function"
    },
    {
      "inputs": [
        {
          "internalType": "uint256",
          "name": "",
          "type": "uint256"
        }
      ],
      "name": "donationDetails",
      "outputs": [
        {
          "internalType": "string",
          "name": "emailId",
          "type": "string"
        },
        {
          "internalType": "string",
          "name": "firstname",
          "type": "string"
        },
        {
          "internalType": "string",
          "name": "lastname",
          "type": "string"
        },
        {
          "internalType": "string",
          "name": "campaignID",
          "type": "string"
        },
        {
          "internalType": "string",
          "name": "campaignName",
          "type": "string"
        },
        {
          "internalType": "string",
          "name": "amount",
          "type": "string"
        }
      ],
      "stateMutability": "view",
      "type": "function"
    },
    {
      "inputs": [
        {
          "internalType": "string",
          "name": "_emailId",
          "type": "string"
        },
        {
          "internalType": "string",
          "name": "_firstname",
          "type": "string"
        },
        {
          "internalType": "string",
          "name": "_lastname",
          "type": "string"
        },
        {
          "internalType": "string",
          "name": "_campaignName",
          "type": "string"
        },
        {
          "internalType": "string",
          "name": "_campaignID",
          "type": "string"
        },
        {
          "internalType": "string",
          "name": "_amount",
          "type": "string"
        }
      ],
      "name": "newDonation",
      "outputs": [],
      "stateMutability": "nonpayable",
      "type": "function"
    }
  ],
  "bytecode": "0x608060405234801561001057600080fd5b50610bc4806100206000396000f3fe608060405234801561001057600080fd5b50600436106100415760003560e01c80631134701b1461004657806323780340146100625780632abfab4d14610097575b600080fd5b610060600480360381019061005b91906106b0565b6100b5565b005b61007c600480360381019061007791906107c9565b61021e565b60405161008e969594939291906108d7565b60405180910390f35b61009f61058a565b6040516100ac9190610962565b60405180910390f35b6040518060c001604052808781526020018681526020018581526020018481526020018381526020018281525060016000805481526020019081526020016000206000820151816000019080519060200190610112929190610590565b50602082015181600101908051906020019061012f929190610590565b50604082015181600201908051906020019061014c929190610590565b506060820151816003019080519060200190610169929190610590565b506080820151816004019080519060200190610186929190610590565b5060a08201518160050190805190602001906101a3929190610590565b50905050856040516101b591906108ab565b60405180910390206040516101c9906108c2565b60405180910390207f01a091983a6d3afd30e9acedef086a8b23893ff0112044a1cfe7d3be7c572d1860405160405180910390a3600160008082825461020f9190610a05565b92505081905550505050505050565b600160205280600052604060002060009150905080600001805461024190610aa7565b80601f016020809104026020016040519081016040528092919081815260200182805461026d90610aa7565b80156102ba5780601f1061028f576101008083540402835291602001916102ba565b820191906000526020600020905b81548152906001019060200180831161029d57829003601f168201915b5050505050908060010180546102cf90610aa7565b80601f01602080910402602001604051908101604052809291908181526020018280546102fb90610aa7565b80156103485780601f1061031d57610100808354040283529160200191610348565b820191906000526020600020905b81548152906001019060200180831161032b57829003601f168201915b50505050509080600201805461035d90610aa7565b80601f016020809104026020016040519081016040528092919081815260200182805461038990610aa7565b80156103d65780601f106103ab576101008083540402835291602001916103d6565b820191906000526020600020905b8154815290600101906020018083116103b957829003601f168201915b5050505050908060030180546103eb90610aa7565b80601f016020809104026020016040519081016040528092919081815260200182805461041790610aa7565b80156104645780601f1061043957610100808354040283529160200191610464565b820191906000526020600020905b81548152906001019060200180831161044757829003601f168201915b50505050509080600401805461047990610aa7565b80601f01602080910402602001604051908101604052809291908181526020018280546104a590610aa7565b80156104f25780601f106104c7576101008083540402835291602001916104f2565b820191906000526020600020905b8154815290600101906020018083116104d557829003601f168201915b50505050509080600501805461050790610aa7565b80601f016020809104026020016040519081016040528092919081815260200182805461053390610aa7565b80156105805780601f1061055557610100808354040283529160200191610580565b820191906000526020600020905b81548152906001019060200180831161056357829003601f168201915b5050505050905086565b60005481565b82805461059c90610aa7565b90600052602060002090601f0160209004810192826105be5760008555610605565b82601f106105d757805160ff1916838001178555610605565b82800160010185558215610605579182015b828111156106045782518255916020019190600101906105e9565b5b5090506106129190610616565b5090565b5b8082111561062f576000816000905550600101610617565b5090565b6000610646610641846109ae565b61097d565b90508281526020810184848401111561065e57600080fd5b610669848285610a65565b509392505050565b600082601f83011261068257600080fd5b8135610692848260208601610633565b91505092915050565b6000813590506106aa81610b77565b92915050565b60008060008060008060c087890312156106c957600080fd5b600087013567ffffffffffffffff8111156106e357600080fd5b6106ef89828a01610671565b965050602087013567ffffffffffffffff81111561070c57600080fd5b61071889828a01610671565b955050604087013567ffffffffffffffff81111561073557600080fd5b61074189828a01610671565b945050606087013567ffffffffffffffff81111561075e57600080fd5b61076a89828a01610671565b935050608087013567ffffffffffffffff81111561078757600080fd5b61079389828a01610671565b92505060a087013567ffffffffffffffff8111156107b057600080fd5b6107bc89828a01610671565b9150509295509295509295565b6000602082840312156107db57600080fd5b60006107e98482850161069b565b91505092915050565b60006107fd826109de565b61080781856109e9565b9350610817818560208601610a74565b61082081610b66565b840191505092915050565b6000610836826109de565b61084081856109fa565b9350610850818560208601610a74565b80840191505092915050565b6000610869600c836109fa565b91507f4e657720446f6e6174696f6e00000000000000000000000000000000000000006000830152600c82019050919050565b6108a581610a5b565b82525050565b60006108b7828461082b565b915081905092915050565b60006108cd8261085c565b9150819050919050565b600060c08201905081810360008301526108f181896107f2565b9050818103602083015261090581886107f2565b9050818103604083015261091981876107f2565b9050818103606083015261092d81866107f2565b9050818103608083015261094181856107f2565b905081810360a083015261095581846107f2565b9050979650505050505050565b6000602082019050610977600083018461089c565b92915050565b6000604051905081810181811067ffffffffffffffff821117156109a4576109a3610b37565b5b8060405250919050565b600067ffffffffffffffff8211156109c9576109c8610b37565b5b601f19601f8301169050602081019050919050565b600081519050919050565b600082825260208201905092915050565b600081905092915050565b6000610a1082610a5b565b9150610a1b83610a5b565b9250827fffffffffffffffffffffffffffffffffffffffffffffffffffffffffffffffff03821115610a5057610a4f610ad9565b5b828201905092915050565b6000819050919050565b82818337600083830152505050565b60005b83811015610a92578082015181840152602081019050610a77565b83811115610aa1576000848401525b50505050565b60006002820490506001821680610abf57607f821691505b60208210811415610ad357610ad2610b08565b5b50919050565b7f4e487b7100000000000000000000000000000000000000000000000000000000600052601160045260246000fd5b7f4e487b7100000000000000000000000000000000000000000000000000000000600052602260045260246000fd5b7f4e487b7100000000000000000000000000000000000000000000000000000000600052604160045260246000fd5b6000601f19601f8301169050919050565b610b8081610a5b565b8114610b8b57600080fd5b5056fea2646970667358221220265c3f20a3dc57cc51aa35dcab4b8c1c15d5b316ab8d978e99cc9fb5f26e6af764736f6c63430008000033",
  "immutableReferences": {},
  "source": "// SPDX-License-Identifier: MIT\r\n\r\npragma solidity ^0.8.0;\r\n\r\ncontract GrantChain {\r\n    event SystemLog(string indexed EventAction, string indexed Data);\r\n\r\n    struct donation {\r\n        string emailId;\r\n        string firstname;\r\n        string lastname;\r\n        string campaignID;\r\n        string campaignName;\r\n        string amount;\r\n    }\r\n\r\n    uint256 public donationCount;\r\n    mapping(uint256 => donation) public donationDetails;\r\n\r\n    function newDonation(\r\n        string memory _emailId,\r\n        string memory _firstname,\r\n        string memory _lastname,\r\n        string memory _campaignName,\r\n        string memory _campaignID,\r\n        string memory _amount\r\n    ) public {\r\n        donationDetails[donationCount] = donation(\r\n            _emailId,\r\n            _firstname,\r\n            _lastname,\r\n            _campaignName,\r\n            _campaignID,\r\n            _amount\r\n        );\r\n        emit SystemLog(\"New Donation\", _emailId);\r\n        donationCount += 1;\r\n    }\r\n}\r\n",
  "sourcePath": "C:\\Lab\\CharityApp\\app\\scontract\\contracts\\GrantChain.sol",
  "compiler": {
    "name": "solc",
    "version": "0.8.0+commit.c7dfd78e.Emscripten.clang"
  },
  "schemaVersion": "3.4.8",
  "updatedAt": "2022-08-15T18:06:48.147Z",
  "devdoc": {
    "kind": "dev",
    "methods": {},
    "version": 1
  },
  "userdoc": {
    "kind": "user",
    "methods": {},
    "version": 1
  }
}